:10074700C2CCC9EEC6ECBDA2B5EA5347503330C49C
:10075700A3BFE95354433839433532B2E2CAD4B35D
:10076700CCD0F20D0A00D5FDD4DABCECB2E2D6D07B
:100777002E2E2E0D0A00434F323A256470706D0DF0
:0E0787000A54564F433A25647070640D0A0000
:1007E700759850438920758BFD758DFDC2ABD28EF0
:0707F700D299D2ACD2AF226F
:10038B001207E77BFF7A07794712009112083B7F30
:10039B00647E001207957D087F201200031204ABC8
:1003AB009000001205E9900000E0FCA3E0FDA3A380
:1003BB00E4FFFEEC78101205C3A3EEF0A3EFF09070
:1003CB000000E0FCA3A3E0FEA3E0FF900006EEF02C
:1003DB00A3EFF0900004E064017004A3E06490705C
:1003EB005B900006E07002A3E070517D087F201245
:1003FB0000031204AB9000001205E9900000E0FC32
:10040B00A3E0FDA3A3E4FFFEEC78101205C3A3EE5B
:10041B00F0A3EFF0900000E0FCA3E0FDA3E0FEA34F
:10042B00E0FF900006EEF0A3EFF07BFF7A07796D0B
:10043B001200917F647E0012079580977D087F20C4
:10044B001200031204AB9000001205E9900000E0CB
:10045B00FCA3E0FDA3A3E4FFFEEC78101205C3A3FD
:10046B00EEF0A3EFF0900000E0FCA3A3E0FEA3E00E
:10047B00FF900006EEF0A3EFF07BFF7A07797D90FB
:10048B000004E0FDA3E090000BCDF0A3EDF0A3EE94
:10049B00F0A3EFF01200917F647E00120795809C11
:030023000208428E
:06084200309802C298325A
:10079500D3EF9400EE940040217D0A7C007B557ACE
:1007A50000EB1B70011AEB4A70F7ED1D70011CED93
:0A07B5004C70EAEF1F70D91E80D6C9
:0107BF002217
:07082100120828D2967F3275
:07082800AE071FEE70FA227B
:1007FE00D297120824C2977F32120828C2967F32EF
:03080E00020828B5
:10081100C297C2967F32120821D2977F32020828EE
:02069300AD07B1
:10069500C2967F0A120828E4FCECC394087480947F
:1006A500805024ED30E704D2978002C2977F05126F
:1006B5000828D2967F05120828C2967F05120828B9
:1006C500ED25E0FD0C80D27F01120828D2977F2806
:1006D500120828D2967F281208287F2830970812FA
:0E06E5000828C2967F0122120828C2967F00C4
:0106F30022E4
:0206F400AD0750
:1006F600E4FBC2967F28120828D297E4FCECC39448
:1007060008748094805026D2967F14120828EB2510
:10071600E0FB3097054401FB8004EB54FEFB7F0AA7
:10072600120828C2967F3C1208280C80D0ED24FFC0
:1007360092977F1E120821C2967F96120828AF0351
:010746002290
:07083B007D037F2002000392
:10000300AB05AA071207FE7FB0120693AF021206D2
:1000130093AF031206931208117F647E00020795C3
:1004AB001207FE7FB1120693E4FF1206F4E4FCFD83
:1004BB00FE9000081205E9900008E0FCA3E0FDA304
:1004CB00E0FEA3E0FF78081205D69000081205E9BC
:1004DB00900008E0F8A3E0F9A3E0FAA3E0FBC00169
:1004EB00C002C003E4FF1206F4E4FCFDFED003D00F
:1004FB0002D001EB2FFFEE3AFEED39FDEC38FC900C
:10050B0000081205E9E4FF1206F4900008E0FCA3D2
:10051B00E0FDA3E0FEA3E0FF78081205D6900008EB
:10052B001205E9900008E0F8A3E0F9A3E0FAA3E0D4
:10053B00FBC001C002C003E4FF1206F4E4FCFDFEA5
:10054B00D003D002D001EB2FFFEE3AFEED39FDECDC
:10055B0038FC9000081205E9900008E0FCA3E0FDD0
:10056B00A3E0FEA3E0FF78081205D6900008120561
:10057B00E9900008E0F8A3E0F9A3E0FAA3E0FBC0E0
:10058B0001C002C0037F011206F4E4FCFDFED003A0
:10059B00D002D001EB2FFFEE3AFEED39FDEC38FC2B
:1005AB009000081205E9120811900008E0FCA3E086
:0705BB00FDA3E0FEA3E0FF39
:0105C2002216
:0300000002082FC4
:0C082F00787FE4F6D8FD75812102038B70
:1005C300E8600FECC313FCED13FDEE13FEEF13FF16
:0305D300D8F1223A
:1005D600E8600FEFC333FFEE33FEED33FDEC33FC83
:0305E600D8F12227
:0C05E900ECF0A3EDF0A3EEF0A3EFF02285
:10002600E508240BF582E43400F583E00508229008
:10003600000830070390000BE475F00112064D022C
:1000460005F52000E97F2ED2008018EF540F24908A
:10005600D43440D4FF30040BEF24BFB41A0050034D
:100066002461FFE50960021509050CE50C7002051F
:100076000B30070E900008E475F00112064DEF02F2
:10008600063B0207C07403D2078003E4C207F508E3
:10009600900008120664E4F509F50BF50CE5096015
:1000A600077F2012006980F5750AFFC201C200C2EF
:1000B60002C203C205C206C208120035FF700D3027
:1000C60007057F0012007AAF0CAE0B22B4255FC283
:1000D600D5C204120035FF24D0B40A00501A75F0B8
:1000E6000A780930D50508B6FF0106C6A426F6200B
:1000F600D5047002D20380D924CFB41A00EF50047D
:10010600C2E5D20402027BD20180C6D20080C0D2F0
:100116000280BCD2D580BAD20580B47F2012006995
:100126002002077401B5090040F1120026FF1200F3
:10013600690200A3D208D2068095120026FB12009F
:1001460026FA120026F94A4B7006794C7A037BFF91
:1001560020022EE509602A7E008E82758300120633
:100166000E60060EEE650A70F0C2D5EBC0E0EAC07E
:10017600E0E9C0E0EE1202C2D0E0F9D0E0FAD0E049
:10018600FB1205F5FF60AAEBC0E0EAC0E0E9C0E0BB
:10019600120069D0E02401F9D0E03400FAD0E0FB87
:1001A600E50A0460DCD50AD980877BFF7A0279BE2E
:1001B600D202809C791080027908C206C2088008A3
:1001C600D2D5790A8004790AC2D5E50A047002F507
:1001D6000AE4FAFDFEFF120026FC7B08200113123A
:1001E6000026FD7B1030000A120026FE120026FFB4
:1001F6007B20EC3382D592D55013C3E43000069FA2
:10020600FFE49EFEE42001039DFDE49CFCE4CBF8A4
:10021600C201EC700CCFCECDCCE824F8F870F38098
:1002260017C3EF33FFEE33FEED33FDEC33FCEB3358
:10023600FB994002FB0FD8E9EB300105F8D0E0C48A
:1002460048B201C0E00AEC4D4E4F78207B0070C2E8
:10025600EAB50A0040BCC0E01202C4D0F0D0E020EB
:100266000104C4C0E0C4B201C0F0120052D0F0D5FF
:10027600F0EB0200A312066D01405301BA580111BA
:100286004C010D4201BE4F01C64401C64901264339
:0802960001CC5501B04601B096
:10029E004501B047036C5001152D01192E013C2B61
:1002AE00011D23013A2003552A00D54800000134D0
:1002BE003F3F3F00790AA2D5200314300509B9103B
:1002CE00020404B9080104A2D5200602500104203C
:1002DE0002689202B509005034C0E07F2030031945
:1002EE007F30A20272067205500F12031BC202C2A9
:1002FE0006C205C2087F30800F300503E9C0E01248
:10030E000069300503D0E0F9D0E0B509CC3005170F
:10031E007F30B9100C1200697F583004077F788047
:10032E0003B908031200693002057F2D0200697FB0
:10033E00202008F87F2B2006F322920280CF286E11
:10034E00756C6C2900D2011200263001F8C20178BA
:10035E000930D50108F60200D52D50434958120038
:10036E00262403B405004001E49003679312005A5B
:0D037E00743A12005AD2037509040201BA44
:1005F500BB010689828A83E0225002E722BBFE0204
:09060500E32289828A83E4932236
:10060E00BB010CE58229F582E5833AF583E02250A1
:10061E0006E92582F8E622BBFE06E92582F8E222EB
:0D062E00E58229F582E5833AF583E4932205
:10063B00BB010689828A83F0225002F722BBFE019E
:02064B00F32298
:10064D00F8E0FBA3A3E0F925F0F0E5821582700236
:07065D001583E0FA38F022DA
:09066400EBF0A3EAF0A3E9F02297
:10066D00D083D082F8E4937012740193700DA3A31C
:10067D0093F8740193F5828883E473740293686030
:06068D00EFA3A3A380DF30
:1007C000EFB40A07740D1207CB740A309811A89978
:1007D000B8130CC2983098FDA899C298B811F63099
:0707E00099FDC299F5992271
:00000001FF
