:10066B00C2CCC9EEC6ECBDA2B5EA5347503330C479
:10067B00A3BFE95354433839433532B2E2CAD4B33A
:10068B00CCD0F20D0A00D5FDD4DABCECB2E2D6D058
:10069B002E2E2E0D0A00434F323A256470706D0DCD
:0E06AB000A54564F433A25647070640D0A00DD
:1006FE00759850438920758BFD758DFDC2ABD28EDA
:07070E00D299D2ACD2AF2258
:100382001206FE7BFF7A06796B1200881207527FF3
:10039200647E001206E07D087F2012000312050E23
:1003A2008F258E248D238C22E4FFFEE52278101205
:1003B200045A8E268F27E525FFE524FE8E288F29F5
:1003C200E52764907004E52664017043E529452819
:1003D200703D7D087F2012000312050E8F258E24AA
:1003E2008D238C22E4FFFEE522781012045A8E2619
:1003F2008F27E525FFE524FEE48E288F297BFF7AEF
:100402000679911200887F647E001206E080B17D39
:10041200087F2012000312050E8F258E248D238C57
:1004220022E4FFFEE522781012045A8E268F27E579
:1004320025FFE524FEE48E288F297BFF7A0679A129
:1004420085262D85272E85282F8529301200887F25
:08045200647E001206E080B791
:0300230002075978
:06075900309802C2983244
:1006E000D3EF9400EE940040147D727C00ED1D70F9
:0D06F000011CED4C70F7EF1F70E61E80E35B
:0106FD0022DA
:0707380012073FD2967F3249
:07073F00AE071FEE70FA2265
:10071500D29712073BC2977F3212073FC2967F32AC
:0307250002073F89
:10072800C297C2967F32120738D2977F3202073FAC
:02060A00AD073A
:10060C00C2967F0A12073FE4FCECC39408748094F2
:10061C00805024ED30E704D2978002C2977F0512F8
:10062C00073FD2967F0512073FC2967F0512073F00
:10063C00ED25E0FD0C80D27F0112073FD2977F2879
:10064C0012073FD2967F2812073F7F283097081257
:0E065C00073FC2967F012212073FC2967F0021
:01066A00226D
:1005A300AE2CAD2BAC2A780812046D8F2D8E2C8DBA
:0505B3002B8C2AE4FF7F
:0205B800AD078D
:1005BA00E4FBC2967F2812073FD297E4FCECC3946F
:1005CA0008748094805025D2967F1412073FEB2539
:1005DA00E0FB30970543030180035303FE7F0A12B1
:1005EA00073FC2967F3C12073F0C80D1ED24FF9251
:0F05FA00977F1E120738C2967F9612073FAF03F6
:0106090022CE
:070752007D037F200200037C
:10000300AB05AA071207157FB012060AAF02120644
:100013000AAF0312060A1207287F647E000206E075
:10050E001207157FB112060AE4FF1205B8E48F2D0B
:10051E00F52CF52BF52A1205A3E4FCFDFEE52D2F97
:10052E00F52DEE352CF52CED352BF52BEC352AF57E
:10053E002AE4FF1205B8752E008F2FAF2D1205A3DA
:10054E00E4FCFDFEE52D2FF52DEE352CF52CED35CD
:10055E002BF52BEC352AF52AAF2DAE2CAD2BFC78D6
:10056E000812046D8F2D8E2C8D2B8C2A7F01120577
:10057E00B8E4FCFDFEE52D2FF52DEE352CF52CED1A
:10058E00352BF52BEC352AF52A120728AF2DAE2C7C
:04059E00AD2BAC2AAB
:0105A2002236
:03000000020746AE
:0C074600787FE4F6D8FD75813D02038247
:10045A00E8600FECC313FCED13FDEE13FEEF13FF80
:03046A00D8F122A4
:10046D00E8600FEFC333FFEE33FEED33FDEC33FCED
:03047D00D8F12291
:10002600E539242DF8E6053922782A300702782D9D
:10003600E475F0011204D80204802000EB7F2ED272
:10004600008018EF540F2490D43440D4FF30040BB2
:10005600EF24BFB41A0050032461FFE53A6002158D
:100066003A053DE53D7002053C30070D782AE475FA
:10007600F0011204D8EF0204C60206B97403D207CF
:100086008003E4C207F5398B2A8A2B892CE4F53ADA
:10009600F53CF53DE53A60077F2012006180F57575
:1000A6003BFFC201C200C202C203C205C206C208A9
:1000B60012002FFF700D3007057F00120072AF3D52
:1000C600AE3C22B4255FC2D5C20412002FFF24D055
:1000D600B40A00501A75F00A783A30D50508B6FF0A
:1000E6000106C6A426F620D5047002D20380D924C0
:1000F600CFB41A00EF5004C2E5D204020272D20154
:1001060080C6D20080C0D20280BCD2D580BAD205C9
:1001160080B47F201200612002077401B53A0040C6
:10012600F1120026FF12006102009AD208D2068060
:1001360095120026FB120026FA120026F94A4B7089
:100146000679437A037BFF20022EE53A602A7E0079
:100156008E8275830012049960060EEE653B70F080
:10016600C2D5EBC0E0EAC0E0E9C0E0EE1202B9D0C9
:10017600E0F9D0E0FAD0E0FB120480FF60AAEBC001
:10018600E0EAC0E0E9C0E0120061D0E02401F9D065
:10019600E03400FAD0E0FBE53B0460DCD53BD980D7
:1001A600877BFF7A0279B5D202809C79108002792A
:1001B60008C206C2088008D2D5790A8004790AC224
:1001C600D5E53B047002F53BE4FAFDFEFF1200267E
:1001D600FC7B08200113120026FD7B1030000A125A
:1001E6000026FE120026FF7B20EC3382D592D550E6
:1001F60013C3E43000069FFFE49EFEE42001039D46
:10020600FDE49CFCE4CBF8C201EC700CCFCECDCC67
:10021600E824F8F870F38017C3EF33FFEE33FEEDF2
:1002260033FDEC33FCEB33FB994002FB0FD8E9EBD3
:10023600300105F8D0E0C448B201C0E00AEC4D4EEA
:100246004F78207B0070C2EAB53B0040BCC0E0128C
:1002560002BBD0F0D0E0200104C4C0E0C4B201C0AB
:10026600F012004AD0F0D5F0EB02009A1204E80131
:10027600375301B15801084C01044201B54F01BD85
:0F0286004401BD49011D4301C35501A74601A70E
:100295004501A747036350010C2D01102E01332B97
:1002A500011423013120034C2A00CC480000012B06
:1002B5003F3F3F00790AA2D5200314300509B91044
:1002C500020404B9080104A2D52006025001042045
:1002D50002689202B53A005034C0E07F203003191D
:1002E5007F30A20272067205500F120312C202C2BB
:1002F50006C205C2087F30800F300503E9C0E01251
:100305000061300503D0E0F9D0E0B53ACC300517EF
:100315007F30B9100C1200617F583004077F788058
:1003250003B908031200613002057F2D0200617FC9
:10033500202008F87F2B2006F322920280CF286E1A
:10034500756C6C2900D2011200263001F8C20178C3
:100355003A30D50108F60200CC2D50434958120019
:10036500262403B405004001E490035E9312005275
:0D037500743A120052D203753A040201B12D
:10048000BB010689828A83E0225002E722BBFE027A
:09049000E32289828A83E49322AD
:10049900BB010CE58229F582E5833AF583E0225018
:1004A90006E92582F8E622BBFE06E92582F8E22262
:0D04B900E58229F582E5833AF583E493227C
:1004C600BB010689828A83F0225002F722BBFE0115
:0204D600F3220F
:1004D800FAE6FB0808E6F925F0F618E6CA3AF62225
:1004E800D083D082F8E4937012740193700DA3A3A3
:1004F80093F8740193F5828883E4737402936860B7
:06050800EFA3A3A380DFB6
:1006B900EFB40A07740D1206C4740A309811A89988
:1006C900B8130CC2983098FDA899C298B811F630A1
:0706D90099FDC299F5992279
:00000001FF
