:020000040800F2
:1000000068040020450100084D0100084F01000868
:1000100051010008530100085501000800000000CC
:100020000000000000000000000000005701000870
:1000300059010008000000005B0100085D01000894
:100040005F0100085F0100085F0100085F01000810
:100050005F0100085F0100085F0100085F01000800
:100060005F0100085F0100085F0100085F010008F0
:100070005F0100085F0100085F0100085F010008E0
:100080005F0100085F0100085F0100085F010008D0
:100090005F0100085F0100085F0100085F010008C0
:1000A0005F0100085F0100085F0100085F010008B0
:1000B0005F0100085F0100085F0100085F010008A0
:1000C0005F0100085F0100085F0100085F01000890
:1000D0005F0100085F0100085F0100085F01000880
:1000E0005F0100085F0100085F0100085F01000870
:1000F0005F0100085F0100085F0100085F01000860
:100100005F0100085F0100085F0100085F0100084F
:100110005F0100085F0100085F0100085F0100083F
:100120005F0100085F0100085F0100085F0100082F
:10013000DFF80CD000F032FC0048004791200008A6
:10014000680400200648804706480047FEE7FEE7AF
:10015000FEE7FEE7FEE7FEE7FEE7FEE7FEE7FEE777
:10016000DD140008310100082DE9F0410024061BD0
:10017000254671F1000605DA01240027D0EB0700BF
:1001800067EB0101161E73F1000605DA0027D2EBBA
:100190000702012567EB030300F0C2FA86460E460C
:1001A00017469C46AC4204D00025D0EB050E65EB0B
:1001B000010624B10020D2EB000760EB030C70466F
:1001C00031463A466346BDE8F081F0B480EA010268
:1001D000D40F4200B2EB410F02D20246084611464C
:1001E0004A0042D0C30DDDB2C1F3C752AD1A202D73
:1001F00035DAC1F3160141F4000204B15242C5F1EF
:10020000200602FA06F12A411044B3EBD05F23D056
:10021000C4B1012DA0EBC35009DCF0BC4FF000428B
:1002200002EAC352DBB200F5000000F0E4BA40007D
:1002300000F1807000EBC350A0F1807040EAD170F3
:10024000490009E0490841EAC071A0EBC35000F53C
:100250000000400800EBC350F0BC00F0C3BA61429C
:10026000012202EB4101001BF6E7F0BC704781F070
:100270000041AAE780F00040A7E730B480EA01021D
:1002800002F0004530F0004221F0004013D090B160
:10029000C30DD40DC2F31601C0F31600E41A41F4E5
:1002A000000140F400027D34914201D3641C00E05F
:1002B0004900002C02DA30BC002070474FF40000E7
:1002C0000023914201D3891A034340084FEA4101B8
:1002D000F7D151B1914202D14FF0004105E002D275
:1002E0004FF0010101E06FF0010103EBC45028441D
:1002F00030BC00F077BA2DE9FE4F804681EA03005A
:10030000C00F0C46009021F0004123F00045B8EBEF
:100310000200A94105D24046214690461C460B46A4
:10032000024623F00040104347D0270DC7F30A00D0
:10033000C3F30A510290401A019040286BDAC3F3CC
:10034000130040F4801B0098924620B10023D2EBAA
:10035000030A63EB0B0B01985946C0F1400250466B
:1003600000F00FFA06460D4650465946019A00F035
:1003700027FA10EB08006141002487EA115284EA51
:10038000E7731A4340D0009A62B3019A012A4FEAF8
:10039000075215DC001B61EB02014FF0004202EA3C
:1003A0000752CDE90042001C41F5801132462B4630
:1003B00000F05EFA03B0BDE8F08F40462146F9E751
:1003C000001B61EB0201001C41F5801300185B412A
:1003D0002018A2F5001747EB030140EAD570B619C3
:1003E0006D4111E06D084FEA360645EAC0754FEAE7
:1003F0000752001B61EB0201001C41F58011490806
:100400004FEA30000019514132462B4603B0BDE897
:10041000F04F00F01EBA0098012240000023D0EBFC
:10042000020263EBE073009821464FEAE074B8EBF8
:10043000000061EB0401E9E783F000435BE781F032
:10044000004158E72DE9FE4F81EA030404F000441F
:1004500021F0004100944FF0000B23F0004350EADC
:1004600001045ED052EA03045BD0C3F30A54C1F323
:100470000A552C44A4F2F3340194A0FB0254C1F3B6
:10048000130141F48011C3F3130343F4801301FB00
:10049000024400FB034E840A970A44EA815447EA67
:1004A0008357A4FB076802958D0A05FB07854FEA71
:1004B000932C04FB0C542705029D4FEA065847EA8B
:1004C0001637B5EB08056EEB070C870E920E47EA60
:1004D000811742EA8312A7FB0201B6EB0B0164EB22
:1004E00000042B0D43EA0C335E1844EB1C50DA4633
:1004F0005146E7FB0201C5F313044FEA0B3343EA0D
:1005000014534FEA0432019C43EA0603A4F10C049D
:100510000294009CCDE900B400F0AAF903B0BDE854
:10052000F08F00200146F9E72DE9F04D81EA030440
:1005300004F0004B21F0004514464FF0000A23F070
:10054000004150EA050220D054EA01021DD0C5F353
:100550000A570246C5F31303C1F31300C1F30A5649
:1005600040F4801543F48013A7EB0608101BD64611
:1005700008F2FD3873EB050002D308F1010801E031
:1005800092185B41B8F1000F03DA00200146BDE884
:10059000F08D00204FF48011064684460EE0171BB4
:1005A00073EB050705D3121B63EB050306434CEA07
:1005B000010C49084FEA300092185B4150EA0107EC
:1005C000EDD152EA030012D082EA040083EA050169
:1005D000084305D0101BAB4106D20122002306E0E0
:1005E00000224FF0004302E06FF0010253101AEBBB
:1005F00006004CEB085110EB0A0041EB0B01BDE883
:10060000F04D00F026B90EB5C10F80EAE070084445
:10061000CA07002140F233438DE80E000A460B461C
:1006200000F026F903B000BD0EB540F2334102914F
:100630000021CDE900110A460B4600F019F903B07C
:1006400000BD70B5C1F30A5201F000450024C1F3AA
:10065000130140F2FF3341F480119A4201DA002085
:1006600070BD40F233439A42A2F2334203DC52425D
:1006700000F096F800E090402C43F1D0404270BD6D
:1006800000F0004230F000400AD0C10D01F5607169
:10069000C0F3160042EA0151C208400711437047F7
:1006A00000200146704701F0004330B421F00041C2
:1006B00050EA010206D00A0DA2F56072C1F31301DF
:1006C000002A02DC30BC00207047440F44EAC10419
:1006D000C100E01830BC00EBC25000F083B800004D
:1006E000002801DBC0F10040002901DBC1F100411D
:1006F0008142704730B50B4601460020202201247C
:1007000009E021FA02F59D4205D303FA02F5491BDF
:1007100004FA02F52844151EA2F10102F1DC30BDF5
:100720002DE9F05F0546002092469B468846064626
:10073000814640241BE0284641464746224600F0B9
:100740002FF853465A46C01A914110D31146184605
:10075000224600F016F82D1A67EB01084F46224694
:100760000120002100F00DF817EB00094E41201E7A
:10077000A4F10104DFDC484631462A464346BDE881
:10078000F09F202A04DB203A00FA02F10020704793
:100790009140C2F1200320FA03F3194390407047BF
:1007A000202A04DB203A21FA02F00021704721FAC6
:1007B00002F3D040C2F1200291400843194670472D
:1007C000202A06DBCB17203A41FA02F043EAE07315
:1007D00006E041FA02F3D040C2F120029140084302
:1007E000194670470029A8BF7047401C490008BF40
:1007F00020F00100704710B4B0FA80FC00FA0CF051
:1008000050EA010404BF10BC704749B1CCF1200488
:1008100021FA04F411FA0CF118BF01212143084315
:10082000A3EB0C01CB1D4FEA00614FEA102042BF41
:10083000002010BC704700EBC35010440029A4BF37
:1008400010BC7047401C490008BF20F0010010BCDC
:10085000704710B5141E73F1000408DA401C41F112
:10086000000192185B411A4301D120F0010010BD34
:100870002DE9F04D92469B4611B1B1FA81F202E0AA
:10088000B0FA80F220329046FFF77BFF04460F4615
:1008900040EA0A0041EA0B0153465A46084313D086
:1008A000114653EA010019D0C8F140025046FFF743
:1008B00077FF05460E46504659464246FFF761FF10
:1008C000084305D0012004E020463946BDE8F08DFC
:1008D0000020054346EAE0762C4337430A98630537
:1008E000E40AA0EB08000022FD0A44EA47540A305B
:1008F00002D500200146E9E7010510196941DDE94B
:10090000084500196941BDE8F04DA2E770B521F036
:10091000004303430CD0C1F30A550024D5EB040572
:1009200064EB0403D617AD1AB34102DB0020014685
:1009300070BD201841EB025170BDC1F30A52C1F3E2
:10094000130140F2FF3341F480119A4202DA002091
:100950000146704740F233439A42A2F2334202DC2E
:100960005242FFF71DBFFFF70CBF000030B5041E59
:1009700071F1000404DB4FF00044404264EB0101DC
:10098000141E73F1000405DB1C464FF00043524275
:1009900063EB0403994208BF904230BD064C074DFB
:1009A00006E0E06840F0010394E80700984710343F
:1009B000AC42F6D3FFF7C0FB702E0008902E000863
:1009C0002DE9F04D00231A461B1A8A4103DB002053
:1009D0000146BDE8F08DC1F30A52C1F3130141F4A1
:1009E00080154FF0000BD10702D100186D41521E47
:1009F0000027044640F2FF11384601EB620A3E46EA
:100A00008046024600204FF48011FFF7C9FEC2194C
:100A10007141BB1846EB0100B4EB030C75EB000C05
:100A200004D3E41A65EB000517460E46241908F1B5
:100A300001006D4180463428E3DDF91946EB0600DC
:100A4000091BA84103D24FF0FF32134601E00022F8
:100A500013461BEB070046EB0A51BDE8F04DFFF7CC
:100A6000F8BE0000FEB51D48401E0028FCDC082032
:100A70008DF8000000248DF801406B460222BE2153
:100A8000382000F03FFB164D2846401E0028FCDCB5
:100A9000144E154F34701BE06B460022BA213820EB
:100AA00000F030FB3C46641E002CFCDC6B4602224E
:100AB000BE21382000F026FB3078401CC0B23070D8
:100AC0000A2801D30020FEBD2846401E0028FCDC79
:100AD00000F054F80028DFD00120FEBD00CA080055
:100AE00000DD6D000600002000F22B00F0B587B09D
:100AF000064633208DF80C0000208DF80D0003AB66
:100B00000222AC21382000F0FDFA1B48401E0028CC
:100B1000FCDC00254FF4615708E03C46641E002CC5
:100B2000FCDC28466D1CADB2642803D200F031F81D
:100B30000006F2D46B4607220021382000F0B2FAFA
:100B40009DF801009DF8021041EA00219DF8030084
:100B500040EA0120000930609DF803009DF8041070
:100B600041EA00219DF8050040EA0120C0F313008E
:100B7000706007B0F0BD0000C07A100010B500F042
:100B800008F800F06800082801D0002010BD0120FE
:100B900010BD08B56B4601220021382000F082FA12
:100BA0009DF8000008BD00002DE9F05F554C83461C
:100BB0005549A0694FF0000AC217411842F1FF30B1
:100BC000A1FB013200FB012201FB0028B4F9102037
:100BD000A3FB0257D61708FB027203FB0629B4F9E0
:100BE0000E20A2FB017CD61706FB01C602FB0062A9
:100BF000520442EAD7327F047F1942EB0902B4F96A
:100C00000C501AEB070942EBC505B4F90A20A3FB07
:100C1000027C4FEAE27608FB02C203FB06224FEA9F
:100C2000172646EA02664FEA2223B4F90820A2FBFF
:100C300001C84FEAE27707FB018102FB00104FEA8F
:100C400000314FEA0C3041EA1C5130184B41001C76
:100C5000E18843F50043A0FB017603FB016100FB43
:100C60000A104210C31752EA030048D0CBF5801097
:100C7000C117CE07C10746EA5006B1EB090166EB82
:100C8000050640F63545A1FB050C06FB05C500270A
:100C900001FB0751FFF768FAB4F91650420B42EA1C
:100CA000C142A5FB027CEE1706FB02C64B1305FBF7
:100CB0000365A7FB026C05FB02C207FB0323720E50
:100CC00042EAC3125D16B4F91430A3FB007CDE17B0
:100CD00006FB00C603FB0166FB0C801843EA4633A3
:100CE0006941C01841EBE6414FEA016242EA102136
:100CF000B4F912004FEA00100818BDE8F09F002078
:100D0000FBE7000048000020000CFEFF2DE9FC413D
:100D100090460E4607466B460622F721772000F0E4
:100D2000C1F99DF800009DF80110000340EA011090
:100D30009DF80210254C40EA1115254A65609DF882
:100D400003009DF80410000340EA01109DF805100F
:100D500040EA1110A0601188C310A3EB4103C1EB5E
:100D60002010B2F902C04043B2F9041003FB0CF3A7
:100D70000013DB12484303EBA030906100EB8000CE
:100D800080300012FFF73FFC0022124BFFF7CCFB34
:100D9000FFF789FCE0602846FFF706FFFFF744FCF9
:100DA00000220D4BFFF7C0FBFFF77DFC20613946A9
:100DB00004F1100001F04EFFE0683060384600F0AA
:100DC0000DF8C8F80000BDE8FC8100000800002014
:100DD00048000020000059400000D94010B50168CB
:100DE000B1F5000F1ADB0E48FFF747FAFFF748FC92
:100DF0000C4A0D4B01F052FA00220C4BFFF71CFB82
:100E00004FF0C0420A4BFFF71DFB4FF00042094B69
:100E1000FFF78AFBBDE81040FFF745BC002010BD7E
:100E2000CDEC7D4428610C878A5AC83F0000F03F12
:100E300066A27240BE9F7A3F1FB503AB0122D0214C
:100E4000772000F02FF90E4B18228821772000F030
:100E500029F9B3208DF800006B460122F421772098
:100E600000F050F914208DF800006B460122F521A6
:100E7000772000F047F99DF80C0004B010BD000089
:100E80004800002008B5B420ADF8000010208DF80F
:100E9000030003208DF802006946024800F004F8C0
:100EA00008BD000000080140F0B5CC78002204F035
:100EB0000F03E40601D58C7823430C784FF00F0C18
:100EC00014F0FF0F4FF0010E1BD005680E880EFACC
:100ED00002F42640A64210D196000CFA06F725EA45
:100EE000070703FA06F5CE783D43282E02D0482E98
:100EF00002D002E0446100E00461521C082AE5D3FC
:100F000005600A88FF2A1CD94468002202F10806FD
:100F10000EFA06F50E882E40AE420ED196000CFA5F
:100F200006F7BC4303FA06F7CE783C43282E00D1DF
:100F30004561CE78482E00D10561521C082AE5D3C0
:100F40004460F0BD0246002092680A4200D00120B1
:100F500070474161704701617047000038B5104922
:100F6000052008800121082000F02CF8C020ADF8F1
:100F7000000003208DF8020014200A4C8DF80300B5
:100F800069462046FFF790FF40212046FFF7E3FF28
:100F900080212046FFF7DFFF0348401EFDD138BD0A
:100FA00004000020000C0140A0860100044A002932
:100FB000116901D0014300E08143116170470000D5
:100FC00000100240044A0029916901D0014300E069
:100FD000814391617047000000100240044A0029DB
:100FE000D16801D0014300E08143D1607047000027
:100FF0000010024010B500F071FA01210846FFF719
:10100000E1FF0121BDE810407C20FFF7DBBF0000BD
:1010100030B5204A5168204B11F00C0103D004294F
:1010200001D0082901D0036012E05168536801F42F
:1010300070114FF0020413F4803F04EB914102D091
:1010400053689B0301D5154B00E0134B59430160D6
:1010500051680F2303EA1111114B5C5C0168E140F8
:1010600041605468072505EA14241C5D21FA04F444
:101070008460546805EAD4241B5DD940C16052687D
:10108000032303EA9232064B1B1F9A5CB1FBF2F179
:10109000016130BD0010024000127A0000093D00DD
:1010A000200000202DE9F047814613481F461646D0
:1010B000058888460024F2B23B464146484600F087
:1010C000BBF8002816D0002D14D02146641CE4B2D1
:1010D00004290FD84FF47A7105FB01F0FFF7A4FA49
:1010E000064A074BFFF7AEF9FFF7ABFA401E0028A0
:1010F000FCDCE0E7BDE8F08704000020CDCCCCCCE0
:10110000CCCC2C402DE9F05F8A461E491F46934601
:101110000E8800254FEA400954460BF0FF0800F006
:101120003BF909F0FF0000F081F980B9204600F09A
:101130007DF960B9002405E0385D00F077F930B939
:10114000641CE4B24445F7D300F056F900200028AF
:1011500015D0002E13D029466D1CEDB204290ED8EF
:101160004FF47A707043FFF75FFA074A074BFFF7B7
:1011700069F9FFF766FA401E0028FCDCCCE7BDE801
:10118000F09F000004000020CDCCCCCCCCCC2C4077
:101190000CB50022264800920192016841F480318A
:1011A00001604FF4A063016801F4003101910099DE
:1011B000491C0091019911B900999942F3D1016834
:1011C000890333D5012101911A490A6842F01002BE
:1011D0000A600A6822F003020A600A6842F002020A
:1011E0000A604168416041684160416841F4806142
:1011F0004160416821F47C114160416841F4E8118B
:101200004160016841F08071016001688901FCD58D
:10121000416821F003014160416841F002014160F1
:101220004168C1F381010229FAD10CBD01920CBDC4
:1012300000100240002002402DE9F0411D461446F6
:101240000F46064600F0A8F87006000E00F0EEF813
:1012500000281CD1384600F0E9F8002817D100F02A
:101260009BF8012000EB4600C0B200F0DFF8002838
:101270000DD107E0012C0CD000F04EF8641E05F8EB
:10128000010BE4B2002CF5D100F0B6F80020BDE867
:10129000F08100F001F8F1E770B51E4E8021304674
:1012A000FFF759FE40213046FFF753FE0024254644
:1012B00040213046FFF74FFE0A20401EFDD1600658
:1012C000040E80213046FFF73DFE08B144F00104D2
:1012D00040213046FFF73DFE0A20401EFDD16D1C27
:1012E000EDB2082DE4D380213046FFF734FE0A200A
:1012F000401EFDD140213046FFF72DFE0A20401E42
:10130000FDD140213046FFF724FE0A20401EFDD1CA
:10131000204670BD000C014070B51E4E8021304645
:10132000FFF719FE40213046FFF713FE0024254643
:1013300040213046FFF70FFE0A20401EFDD1600617
:10134000040E80213046FFF7FDFD08B144F0010492
:1013500040213046FFF7FDFD0A20401EFDD16D1CE7
:10136000EDB2082DE4D380213046FFF7F2FD0A20CC
:10137000401EFDD140213046FFF7EDFD0A20401E02
:10138000FDD140213046FFF7E4FD0A20401EFDD18B
:10139000204670BD000C014010B5164C802120463F
:1013A000FFF7D9FD0A21491EFDD140212046FFF754
:1013B000D2FD0A21491EFDD180212046FFF7C2FD42
:1013C000A8B180212046FFF7C4FD0A21491EFDD1A6
:1013D00040212046FFF7BDFD0A21491EFDD1802195
:1013E0002046FFF7AFFD002800D0022010BD0120ED
:1013F00010BD0000000C014010B50B4C80212046B0
:10140000FFF7A7FD0A21491EFDD140212046FFF725
:10141000A2FD0A21491EFDD180212046FFF79BFD38
:101420000A20401EFDD110BD000C014070B5164EC3
:10143000054640213046FFF78CFD002428064FF07A
:101440008001304602D5FFF786FD01E0FFF781FD00
:101450006806050E0A21491EFDD140213046FFF7DE
:101460007AFD0A20401EFDD140213046FFF771FD74
:101470000A20401EFDD1641CE4B2082CDED3BDE876
:10148000704000F003B80000000C014070B5124D30
:10149000002480212846FFF75EFD0A21491EFDD168
:1014A00040212846FFF757FD0A21491EFDD107E0DC
:1014B000641CE4B2FA2C03D9FFF79EFF022070BD32
:1014C00080212846FFF73EFD0028F1D14021284623
:1014D000FFF73FFD002070BD000C01400F4810B524
:1014E000016841F00101016041680D4A114041600D
:1014F00001680C4A11400160016821F480210160FB
:10150000416821F4FE0141604FF41F018160FFF743
:101510003FFE05494FF00060086010BD001002401A
:101520000000FFF8FFFFF6FE08ED00E000298189CA
:1015300002D041F4005101E021F400518181704753
:10154000174910B588420AD101218C032046FFF7C4
:1015500045FD2046BDE810400021FFF73FBD114981
:10156000884202D101214C0410E00F49884202D187
:1015700001218C040AE00D49884202D10121CC04EA
:1015800004E00B4988420AD101210C052046FFF7EF
:101590000DFD2046BDE810400021FFF707BD10BD3E
:1015A000003801400044004000480040004C00402A
:1015B000005000400246002012880A4200D001205C
:1015C0007047000030B50446008A85B00D464CF6E1
:1015D000FF710840E98801432182A0894EF6F3118A
:1015E0000840A9882A8911436A8902431143A181CD
:1015F000A08A4FF6FF410840A9890143A1826846AD
:10160000FFF706FD1948844201D1039800E00298D3
:10161000A189090400EBC00101EB0010296801D584
:10162000490000E08900B0FBF1F06422B0FBF2F168
:1016300009010B096FF018056B4300EB8300A389C8
:101640001D044FF0320306D503EBC000B0FBF2F0EF
:1016500000F0070005E003EB0010B0FBF2F000F033
:101660000F000843208105B030BD00000038014064
:10167000C1F30801818070470FB4054B10B503A971
:10168000044A029800F05AF910BC5DF814FB0000FF
:101690006D20000800000020490050EAC12018BF5A
:1016A00004204A0D18BF40F0010040F2FF72B2EB77
:1016B000515F08BF40F00200012808BF05207047B5
:1016C0002DE9F0414F1E00EBC7010446D1E90001AE
:1016D00015461E4637F006020DD02A463346FEF761
:1016E000B1FE7F1E04EBC703D3E90023FEF703FE20
:1016F00037F00602F1D1022F25D0042F13D0062F88
:1017000018BFBDE8F0812A463346FEF79BFED4E9B8
:101710000A23FEF7F0FD2A463346FEF793FED4E98E
:101720000823FEF7E8FD2A463346FEF78BFED4E990
:101730000623FEF7E0FD2A463346FEF783FED4E992
:101740000423FEF7D8FD2A463346FEF77BFED4E994
:101750000223FEF7D0FD2A463346FEF773FED4E996
:101760000023BDE8F041FEF7C6BD0000002213468D
:1017700010460149FEF7D8BE0000F03FFEF7BBBDA2
:101780000022134610461146FEF7CEBE40F201324B
:1017900000204FF0E041FFF7B9B80000024A0020F6
:1017A0001107FFF7B3B8000001FDFFFF02E008C812
:1017B000121F08C1002AFAD170477047002001E0CB
:1017C00001C1121F002AFBD17047000001490860C7
:1017D00070470000300000202DE9FF5FDDE90220A6
:1017E000010DDDF838B0024318D044F61050A1F2D4
:1017F000FF3141430D140F98012820D0A5EB0B00B9
:10180000401C5FEA000A4FF00004474EDFF81C91CD
:10181000A046504616D5CAF1000728E00F980124CB
:1018200043A2012808D0002100980F9BC0E90021A5
:10183000C0E90243BDE8FF9F6FEA0B01F4E7CBF17B
:101840000000DEE7074612E0F80707D022463346DD
:1018500040464946FEF7F6FD804689462246334615
:1018600010461946FEF7EEFD04460E467F10002F87
:10187000EAD1DDE90201BAF1000F42464B4602DA35
:10188000FEF7E0FD01E0FEF74FFE04460E460022A3
:10189000284BFFF76BF803D84FF0FF30014607E005
:1018A0000022254B20463146FEF725FDFFF745F87F
:1018B000102409E0002C0ADB0A220023FEF730FF87
:1018C000019B30321A55641E50EA0102F2D1641CA9
:1018D000019AC4F1110314440F9A012A03D0012282
:1018E00008430DD10AE0084304D000204FF0110B4B
:1018F0000F9080E7A3EB0B056D1E0DE05B4504DD4B
:101900004FF0000205F1010504E003DA4FF0000298
:10191000A5F10105002AECD000980F99C0E9023129
:10192000C0E9004586E70000000024400000F03FC9
:10193000300000000000F0430000E03F2DE9FF4FC1
:1019400095B09B468946064600250FE2252877D1AB
:1019500000242746F84A0121059400E0044316F8C4
:10196000013F203B01FA03F01042F7D130782A28DA
:1019700011D06FF02F033078A0F13002092A16D869
:10198000059A44F0020402EB820203EB4202104487
:10199000761C0590EFE759F8042B0592002A03DA2C
:1019A000504244F40054059044F00204761C307810
:1019B0002E2816D116F8010F44F004042A280DD061
:1019C0006FF02F023078A0F13003092B09D807EB14
:1019D000870302EB4303C718761CF3E759F8047B2F
:1019E000761C30786C280FD006DC4C2817D068287D
:1019F0000DD06A2814D104E0742810D07A280FD1B1
:101A00000DE044F400140AE044F4801401E044F4CE
:101A100040147278824202D104F58014761C761C40
:101A2000307866280BD013DC582877D009DC0028E2
:101A300075D04528F6D04628F4D047281AD19DE124
:101A400018E0632835D0642879D0652812D195E153
:101A5000702873D008DC6728F1D069286FD06E2811
:101A60000DD06F2806D1B5E073282CD0752875D01D
:101A7000782874D05A46179990476D1C75E1C4F3C5
:101A80000250022809D003280DD0D9F800100428EC
:101A90000DD00D6009F1040967E1D9F80010EA17CB
:101AA000C1E90052F6E7D9F800100D80F2E70D7099
:101AB000F0E719F8041B8DF8001000208DF80100E4
:101AC000EA46012003E059F804AB4FF0FF3061070C
:101AD0004FF0000102D40DE008F101018846B9423F
:101AE0000FDA8045F8DB1AF808100029F4D108E075
:101AF00008F1010188468142FADB1AF80810002932
:101B0000F6D105985B46A0EB080721463846179AA0
:101B100000F094FA284400EB080507E04DE029E1C5
:101B20000DE01AF8010B5A4617999047B8F10108D1
:101B3000F7D25B4621463846179A13E142E00A2263
:101B40000092C4F302524FF0000A022A08D059F85A
:101B500004CB032A4FEAEC710AD00DE029E02AE019
:101B600009F1070121F00702F2E802C1914609E0FC
:101B70000FFA8CFC4FEAEC71042A03D14FFA8CFC6B
:101B80004FEAEC71002907DA0A460021DCF1000C6B
:101B900061EB02012D2202E0220504D52B228DF8F3
:101BA0000420012203E0E20701D02022F7E790465B
:101BB00059E00A2102E010220DE010214FF0000A46
:101BC00000910BE010224FF0000A44F004040827B3
:101BD000009203E008224FF0000A0092C4F3025280
:101BE000022A05D059F804CB0021032A08D009E0C5
:101BF00009F1070121F00702F2E802C1914605E070
:101C00001FFA8CFC042A01D10CF0FF0C4FF00008E5
:101C1000220728D5702806D0009B83F0100353EAD2
:101C20000A0305D00EE040228DF80420012208E0CE
:101C30005CEA010206D030228DF804208DF8050000
:101C400002229046009B83F0080353EA0A030AD15C
:101C50005CEA010201D1620705D530228DF804202B
:101C60004FF001087F1E582804D034A003900EA81E
:101C700002900DE036A0F9E753466046009AFEF761
:101C80004FFD84460398825C0298401E02900270C9
:101C90005CEA0100F0D1029806A9081A00F1200AB6
:101CA000600702D524F4803400E00127574502DDA7
:101CB000A7EB0A0000E0002000EB0A010090059865
:101CC0004144401A0590E00306D45B462146179A2A
:101CD000059800F0B3F90544002706E001A85A462C
:101CE000C05D179990476D1C7F1C4745F6DBE003EC
:101CF0000CD55B462146179A059800F09FF90544DC
:101D000004E030205A46179990476D1C0099481EF0
:101D100000900029F5DC08E0029802995A46007804
:101D2000491C0291179990476D1CBAF10001AAF164
:101D3000010AF1DC65E1000009280100303132338D
:101D400034353637383961626364656600000000F7
:101D500030313233343536373839414243444546E1
:101D60000000000000F058F90544761C3078002887
:101D70007FF4ECAD19B02846BDE8F08F620700D4BF
:101D8000062709F1070222F0070CFCE80223E146CE
:101D900003F000485FEA080C02D00FF2702C0DE04F
:101DA0005FEA045C02D50FF2682C07E05FEAC47CAE
:101DB00002D00FF2602C01E0AFF2700C4FF0FF3850
:101DC00023F00043CDF850C065280CD006DC452830
:101DD00009D046281DD047283DD13DE0662818D0BF
:101DE00067287ED138E00021112F01DB112000E0AF
:101DF000781CCDE9000106A90EA8FFF7EDFCDDE98E
:101E00000F010E9A03910021009207F1010A04913B
:101E10004DE04FF000400097CDE9011006A90EA853
:101E2000FFF7DAFCDDE90F0203920E9B1199002205
:101E3000DDF80CA00093049211B9791C00EB010AA3
:101E4000B7EB0A0004D4C0F1FF3007F1010A049097
:101E5000AAEB0700019044E0012F00DA01270021DE
:101E6000112F01DD112000E03846CDE9000106A95F
:101E70000EA8FFF7B1FCDDE90F010E9A03910021D6
:101E800004910092BA4621070CD40399514500DA17
:101E90008A46BAF1010F05DD009AAAF10101515CF1
:101EA000302908D0B84202DA10F1040F06DA012115
:101EB000CDE9011015E0AAF10101E9E7002805DCF0
:101EC000049901440491AAEB000102E0411C514530
:101ED00000DD8A460499401A401C01904FF00040F2
:101EE0000290200704D40198504501DBCDF804800E
:101EF00000208DF84F0002980DF14F07B0F1004F10
:101F000025D02B200E9002984FF0020800280CDA02
:101F1000404202902D200E9007E00A210298FEF721
:101F2000E9FB3031029007F8011DB8F10001A8F17A
:101F30000108F2DC02980028EFD1791E0E98087093
:101F4000307800F0200040F0450007F8020D12A89C
:101F5000C01B00F107081498007800B1012000EBC5
:101F60000A01019801EBE07105984144401A401EB6
:101F70000590E00306D45B462146179A059800F0C9
:101F80005DF805441498007818B15A46179990479F
:101F90006D1CE00324D55B462146179A059800F096
:101FA0004DF805441CE00498002807DBDDE9030137
:101FB000884203DD0098405C179901E017993020B2
:101FC0005A469047049805F10105401C0490019879
:101FD000401E019004D12E205A46179990476D1C3F
:101FE000BAF10001AAF1010ADDDC05E017F8010BE6
:101FF0005A46179990476D1CB8F10001A8F10108E5
:10200000F4DC5B462146179A0598ABE62D000000EC
:102010002B000000200000002DE9F04104460025BF
:102020001E461746880404D405E039462020B047F0
:102030006D1C641EF9D52846BDE8F0812DE9F041FC
:10204000044600251E469046C80301D5302700E00F
:102050002027880404D505E041463846B0476D1C6A
:10206000641EF9D52846BDE8F081000070B5074D23
:10207000044640212846FFF79DFA0028F9D0E1B236
:102080002846FFF7F5FA204670BD000000380140F1
:1020900086B00024FEF7AEFFFEF7F4FEFEF75EFF0B
:1020A0004FF4E13000F05CFEFEF7DCFC38B1FEF7E7
:1020B000C3FE58280ED039A0FFF7DEFAFEE73EA097
:1020C000FFF7DAFAFEE7FEF7CDFC4148401E002894
:1020D000FCDC01E0DFF8FC80FEF750FD0028F2D0C8
:1020E0006846FEF703FD00984FF47A714843060DE9
:1020F000019849004843384904AA01EB105503A947
:1021000002A8FEF703FE35A0FFF7B6FA3BA0FFF7E3
:10211000B3FA0A2795FBF7F095FBF7F107FB10528E
:102120003EA0FFF7A9FA96FBF7F096FBF7F107FB45
:1021300010623FA0FFF7A0FA2FA0FFF79DFA41A081
:10214000FFF79AFA0298FEF79BFA02460B4643A065
:10215000FFF792FA0398FEF793FA02460B4644A063
:10216000FFF78AFA0498FEF78BFA02460B4645A061
:10217000FFF782FA47A0FFF77FFA4748401E002882
:10218000FCDC2CB1002404214046FEF7E4FEA3E76A
:10219000012404214046FEF7DCFE9DE7424D50320B
:1021A0003830B4ABB8D0C6F7B3F5CABCBBAFB4EDEA
:1021B000CEF30D0A000000004148543230B4ABB8F1
:1021C000D0C6F7B3F5CABCBBAFB4EDCEF30D0A0071
:1021D00080970600000801400CFEFFFF2A2A2A2AE9
:1021E0002A2A2A2A2A2A2A2A2A2A2A2A2A2A2A2A4F
:1021F0002A2A2A2A2A2A2A0D0A0000004148543293
:1022000030CEC2CAAAB6C8B4ABB8D0C6F7B2E2CA1A
:10221000D4CAFDBEDD3A0D0A00000000CEC2B6C829
:102220003A2025642E256420A1E60D0A0000000056
:10223000CAAAB6C83A2025642E25642025250D0A91
:1022400000000000424D50323830B4ABB8D0C6F771
:10225000B2E2CAD4CAFDBEDD3A0D0A00C6F8D1B951
:102260003A2025302E3466206850610D0A000000A7
:10227000CEC2B6C83A2025302E326620A1E60D0A1D
:1022800000000000BAA3B0CE3A2025302E326620DE
:102290006D0D0A000D0A000000BADB002DE9F04DBB
:1022A00016460F4694B01C4621F0004123F0004230
:1022B000002814BF4FF0010C4FF0000C0CEB470C42
:1022C000FE4B0CEB03054FEA630C65452BD3350041
:1022D00018BF012505EB44051D44F94B9D4222D34F
:1022E000F84B52EA060C02D09F4205D148B914B00F
:1022F00000201946BDE8F08D002808BF4FF0000C03
:1023000001D04FF0010C0CEB470313F5001F0AD866
:10231000002E14BF4FF0010C4FF0000C0CEB4403E7
:1023200013F5001F07D914B0324623463946BDE8DD
:10233000F04DFFF723BADFF890834FF0000A002F2B
:10234000B8BF424523DAE14B9A42A8BF4FF0020AD8
:102350001DDADC4B93421ADCDD4B03EB2253142BCA
:1023600008DDC3F1340C26FA0CF303FA0CFCB44577
:102370000DD108E05EB9C3F1140C22FA0CF303FA94
:102380000CFC944503D103F00103C3F1020A51EAA6
:1023900000031BD1002C19DA002F18BFBAF1020F6D
:1023A00002D0BAF1010F07D00220FFF70FFA14B0E4
:1023B000BDE8F04DFFF7DAB90220FFF707FAFFF7A3
:1023C000D5F914B081F00041BDE8F08D330070D133
:1023D000424525D107F1804212F5801201BF002845
:1023E0000020B84914B008BFBDE8F08DB548884258
:1023F00007DC002CA1BF1846214614B0BDE8F08DC3
:1024000007E0002CBFBF184684F0004114B0BDE8BF
:10241000F08DB0497944D1E9000114B0BDE8F08DE8
:10242000DFF8A0C262452AD1002C24DA39B1414537
:1024300017D1002804BF002002461CD106E040B19D
:102440000220FFF7C3F9FFF7A1F90A46394600F069
:10245000D7BA9D4A394614B0002062F31E01BDE888
:10246000F08D08DA14B03B46BDE8F04D024600207E
:102470006146FEF759B814B03946BDE8F08D4145C4
:1024800017DAB4F1804F0CD0A4F10053B3F1FF532D
:102490000FD13B1E0DDB14B01946BDE8F04D00F026
:1024A00039BC3B4614B00246BDE8F04D1946FDF775
:1024B000C9BF050027F000433AD1E1B1414537D10A
:1024C000002F06DD002CA1BF0020414614B0BDE85E
:1024D000F08D002F01DD002C1FDB002F16DA002C01
:1024E00014DBBAF1010F4FF0000014BF76497A49AE
:1024F00014B0BDE8F08DBAF1020F18BF002F0CD058
:10250000BAF1010F09D1002F07DA0BE0002FB8BF95
:10251000002C0DDABAF1010F04D0002014B00146EE
:10252000BDE8F08D14B000204FF00041BDE8F08D03
:102530004FF0010808EBE77CCDF814C05CEA0A0C08
:102540000DD0DFF898C162457EDDDFF894C1654BA0
:10255000624512DD8B420ADB002C18DB23E00120F0
:10256000FFF734F914B0BDE8F04DFFF709B9554A4B
:102570008A4202DC002C0ADC15E0994202DA002CC7
:1025800011DA04E04F4B994219DD002C0BDD0220DB
:10259000FFF71CF9FFF7FAF84B4A14B061F31E027B
:1025A0001146BDE8F08D0220FFF710F9FFF7F6F8AD
:1025B000444A14B061F31E021146BDE8F08D0022BA
:1025C0003946FDF739FF07460D466FF00102FEF769
:1025D0009DF94FF05532444BFDF731FF3A462B46FB
:1025E000FDF730FF0022414BFDF729FF80468B4667
:1025F0003A462B4610461946FDF724FF42465B46F5
:10260000FDF720FF88460E904FF0C042384B384609
:102610002946FDF717FF83460091364A344B414661
:102620000E98FDF70FFF80460191334A334B384631
:102630002946FDF707FF4246019BFDF7FDFE0D46CB
:1026400002460B460C9000E011E058460099FDF759
:1026500052FE002788465A463846009BFDF7ECFE9E
:102660002B460C9AFDF7EBFE024600F079B90020EC
:10267000B1F5801F07DA352228461946FEF746F9DC
:1026800005466FF0340000EB2150A0F2FF300190BE
:10269000C1F3130040F07F6141F0405102911849AD
:1026A0008842D8BF4FF0000B35DD16498142C8BFC4
:1026B0004FF0010B2FDC4FF0000B25E0FFFF1F0058
:1026C000FFFF0F000000F03F0000F07F00004043DC
:1026D00001FCFFFF500A00000000F0FF0000E04195
:1026E0000000F043FFFFEF3F5555D53F0000E03FAE
:1026F0004715F73FFE822B6544DF5DF80BAE543E75
:102700008E9803007AB60B000198401C0190029845
:10271000A0F580100290FF480299784400EBCB00AE
:102720000991D0E9002328460B931292FDF784FE0D
:1027300000910A9028460B9B129A0999FDF7DBFD40
:1027400002460B460020F449FDF7EEFECDE90C01F0
:102750000B46024600990A98FDF774FE0690EF4872
:102760008846002778440299006810904FF0005086
:1027700040EA610000EB8B4000F5002102910B9BC9
:10278000129A1098FDF758FE2A46099BFDF757FE4E
:102790003A464346FDF756FE0891129038464146A8
:1027A000029B109AFDF74EFE009B0A9AFDF747FE2A
:1027B000089B129AFDF740FEDDE90C23FDF742FE6F
:1027C0000B91069A1290434610461946FDF73AFEC1
:1027D00005460246D2480B460A9106217844FEF788
:1027E0006FFF0A9B2A460891029010461946FDF792
:1027F00029FE089B029AFDF725FE054609914346EE
:1028000038461946069AFDF776FD0B9B129AFDF79E
:1028100019FE2A46099BFDF76EFDCDE908013A46EF
:10282000434610461946FDF70DFE0A910022BD4BA6
:102830000090FDF760FDDDE90823FDF75CFD0D4626
:102840003A46B84B3846FDF7F7FD0A9B009AFDF76C
:10285000F3FDDDE90823FDF7F2FDCDE908013A4675
:102860002B4610464146FDF7EDFD00910A90DDE94B
:1028700008014346069AFDF7E5FD069088462B467B
:102880003A460B991298FDF7DDFD4346069AFDF78F
:1028900032FD80460B4602460D9100990A98FDF7DD
:1028A0002AFD00200F460546009B0A9AFDF7C4FD4D
:1028B00042460D9BFDF7C3FD88460E904FF06042E7
:1028C000994B28463946FDF7BDFD02910090974A85
:1028D000954B41460E98FDF7B5FD80460391944A0D
:1028E000944B28463946FDF7ADFD4246039BFDF764
:1028F00002FD914A7A4402EBCB03D3E90023FDF7B2
:10290000FAFC054607910198FDF77DFE0C900391B6
:102910002A46079B02990098FDF7EDFC874A7A4406
:1029200002EBCB03D3E9002393460193FDF7E3FCCD
:10293000039B0C9AFDF7DFFC002788463846039B73
:102940000C9AFDF779FD5A46019BFDF775FD029B38
:10295000009AFDF771FD2A46079BFDF770FD0246C0
:102960000020069005986C4DAAF10103184301D18F
:10297000734D069000200B46049030462146FDF72B
:1029800061FD82468B46234630461946049AFDF780
:1029900053FD3A464346FDF755FD52465B46FDF76B
:1029A000AAFC06468A463A46434621460498FDF765
:1029B00049FD04460F4632465346FDF79CFC614AEA
:1029C0008B46914221DBABEB020353EA000210D1AC
:1029D00022463B46FDF730FD804603915A4A5B4B49
:1029E00030465146FDF787FC4246039BFDF7BEFF8C
:1029F00027D20220FEF7EAFEFEF7C8FE0A46294665
:102A000014B062F31E01BDE8F08D514B2BF0004273
:102A10009A4216D34F4A0BEB020353EA000208D145
:102A200022463B46FDF708FD32465346FDF79EFF22
:102A300007D80220FEF7CAFEFEF7B0FE0A46294676
:102A4000DEE72BF000404449444A01EB20514FF0AF
:102A50000008824223DA481C4FF4801121FA00F06A
:102A600058443F4AC0F30A517A443E4BA1F2FF3129
:102A7000CB4020EA0303C0F3130040F4801CC1F1F3
:102A8000140012682CFA00F8BBF1000FB8BFC8F1AF
:102A9000000820463946FDF7CFFC04460F46224683
:102AA0003B4630465146FDF726FC4FF0000B5A4698
:102AB0002D4B58460391FDF7C5FC00910A902B4A17
:102AC0002B4B58460399FDF7BDFC0491029022461A
:102AD0003B4658460399FDF7AFFC32465346FDF797
:102AE000AEFC244A244BFDF7ADFC049B029AFDF793
:102AF00002FC07468A46009B0A9AFDF7FCFB044647
:102B00000E46009B0A9AFDF797FC3A465346FDF79E
:102B100096FC33E0C20600000000F03F0007000012
:102B2000300600000000084009C7EE3FFD033ADC14
:102B3000F5015B14E02F3EBE08050000CE04000046
:102B40000000F0BF00009040FE822B654715973CC7
:102B500000CC904000346F3F01FCFFFF0000E03FDD
:102B6000FC030000FFFF0F00432EE63F396CA80C6A
:102B7000615C20BEEF39FAFE422EE63F0746224650
:102B800033460F9110461946FDF75CFC834602461A
:102B90002E488A460B4605217844FEF791FD5A4699
:102BA0005346FDF74FFC22463346FDF748FC82466C
:102BB0008B463A46204631460F9BFDF743FC3A468A
:102BC0000F9BFDF798FB0F460A9000224FF08043C1
:102BD00050465946FDF730FC0391009052465B4643
:102BE00020463146FDF72EFC039B009AFDF79CFC26
:102BF0003B460A9AFDF720FC22463346FDF71CFCB3
:102C00000022134BFDF71BFC0E46044601EB085156
:102C10000815002810DC424620463146FDF776FEB6
:102C2000FEF73AFD042808BFFEF7B8FD42462046ED
:102C30003146FDF76BFE044606980B4614B022465B
:102C40002946BDE8F04DFDF7FDBB0000A4020000E1
:102C50000000F03F2DE9F05F89462B498046294F5F
:102C6000087800252E4657F820202C4612F0FF4FFA
:102C7000D8F80020AA4606D08B4698B107EB800012
:102C800050F8041C0FE047F82020401CD8F8003012
:102C9000C0B2C9F800300870052801D381F800A03F
:102CA000BDE8F09F39691046FDF7E1FA20F00040D9
:102CB0001649FDF715FD0DD29BF80000D8F800204D
:102CC00047F82020401CC0B28BF80000052801D333
:102CD0008BF800A057F82400FDF7D2FC2A463346B3
:102CE000FDF709FB641CE4B205460E46052CF1D342
:102CF0000022074BFDF718FCFDF7D5FCC9F80000D2
:102D0000CEE700003400002008000020CDCCCC3DF0
:102D1000000014402DE9F04106460F46FDF750FE35
:102D200004000D4618BF0120284320F00040C0F1E8
:102D30007F6000F1E040C00F0ED0301C18BF0120B2
:102D4000384320F00040C0F17F6000F1E040C00F48
:102D500004BF0120FEF73AFD20462946BDE8F08178
:102D600070B5044686B0012144F20400FEF72AF94A
:102D7000194D2846FEF7E4FB6815ADF81000032056
:102D80008DF812001820154E8DF8130004A9304656
:102D9000FEF78AF82815ADF8100004208DF813000E
:102DA00004A93046FEF780F80020ADF80400ADF825
:102DB0000600ADF80800ADF80C000C20ADF80A00D4
:102DC000009469462846FEF7FDFB01212846FEF7E0
:102DD000ADFB06B070BD00000038014000080140A6
:102DE000000000000000F03F000000000000F83F7D
:102DF00000000000000000000000004003B8E23FB7
:102E0000000000000000000006D0CF43EBFD4C3E68
:102E1000033333333333E33FFFAB6FDBB66DDB3F5D
:102E20004D268F515555D53F01411DA96074D13FA5
:102E300065DBC9934A86CD3FEF4E454A287ECA3F9F
:102E40003E5555555555C53F93BDBE166CC166BF21
:102E50002CDE25AF6A56113FF16BD2C541BDBBBE1A
:102E6000D0A4BE726937663E00000000000000007A
:102E7000902E00080000002034000000AC1700086D
:102E8000C42E00083400002034040000BC170008E1
:102E900000000000370000000000000000000000FB
:102EA000000000000000000000000000020406080E
:102EB00000000000010203040102030406070809E0
:042EC000000000000E
:0400000508000131BD
:00000001FF
